:100000000C94E6000C9417010C9417010C94170142
:100010000C9417010C9417010C9417010C94170100
:100020000C9417010C9417010C9417010C941701F0
:100030000C9417010C9417010C9417010C941701E0
:100040000C9417010C9417010C9417010C941701D0
:100050000C9417010C9417010C9417010C94CD0209
:100060000C9417010C9441030C9417030C94170182
:100070000C9417010C9417010C9417010C941701A0
:100080000C9417010C9417010C9417010C94170190
:100090000C9417010C9417010C9417010C94170180
:1000A0000C9417010C9417010C9417010C94170170
:1000B0000C9417010C9417010C9417010C94170160
:1000C0000C9417010C9417010C9417010C94170150
:1000D0000C9417010C9417010C9417010C94170140
:1000E0000C9417010C9476050C947A010C9421025F
:1000F0000C9477030C949C010C943E010C94D40155
:100100000C948E010C946B01000022002500280045
:100110002B002E003100340002010000050108010F
:100120000B0100002100240027002A002D003000D0
:10013000330001010000040107010A01050505055E
:10014000070508080808020202020A0A080804044F
:10015000040401010101010101010303030303037D
:100160000303040707070C0C0C0C0C0C0C0C02020C
:10017000020206060606060606060B0B0B0B0B0B09
:100180000B0B010210202008081020401020408096
:10019000020102010804020101020408102040804B
:1001A00080402010080402018004020180402010D9
:1001B0000804020108040201010204081020408022
:1001C00001020408102040807703760511241FBE29
:1001D000CFEFD1E2DEBFCDBF00E00CBF22E0A4E252
:1001E000B2E001C01D92A43DB207E1F712E0A0E029
:1001F000B2E0EEEBFFE000E00BBF02C007900D9213
:10020000A432B107D9F710E0C5EED0E000E006C097
:1002100021970109802FFE010E94AF05C43ED1073E
:1002200080E00807A9F70E94B2030C94CD070C9454
:1002300000003FB7F8948091290290912A02A09182
:100240002B02B0912C0226B5A89B05C02F3F19F0B8
:100250000196A11DB11D3FBFBA2FA92F982F882746
:10026000BC01CD01620F711D811D911D42E0660F21
:10027000771F881F991F4A95D1F70895AF92BF92B3
:10028000CF92DF92EF92FF920F931F93CF93DF9362
:100290006C017B018B01040F151FEB015E01AE1891
:1002A000BF08C017D10759F06991D601ED91FC91B3
:1002B0000190F081E02DC6011995892B79F7C501D0
:1002C000DF91CF911F910F91FF90EF90DF90CF9032
:1002D000BF90AF900895FC01538D448D252F30E0E1
:1002E000842F90E0821B930B541710F0CF96089543
:1002F00001970895FC01918D828D981761F0A28D70
:10030000AE0FBF2FB11D5D968C91928D9F5F9F7335
:10031000928F90E008958FEF9FEF0895FC01918DEB
:10032000828D981731F0828DE80FF11D858D90E058
:1003300008958FEF9FEF0895FC01918D228D892FF5
:1003400090E0805C9F4F821B91098F7399270895DD
:100350008DE292E00E949C0121E0892B09F420E0CB
:10036000822F0895FC01A48DA80FB92FB11DA35AA7
:10037000BF4F2C91848D90E001968F739927848FC5
:10038000A689B7892C93A089B1898C9183708064E8
:100390008C93938D848D981306C00288F389E02D89
:1003A00080818F7D80830895EF92FF920F931F933A
:1003B000CF93DF93EC0181E0888F9B8D8C8D981318
:1003C0001AC0E889F989808185FF15C09FB7F89424
:1003D000EE89FF896083E889F98980818370806470
:1003E00080839FBF81E090E0DF91CF911F910F91BB
:1003F000FF90EF900895F62E0B8D10E00F5F1F4FCA
:100400000F731127E02E8C8D8E110CC00FB607FCD8
:10041000FACFE889F989808185FFF5CFCE010E9466
:10042000B201F1CFEB8DEC0FFD2FF11DE35AFF4F21
:10043000F0829FB7F8940B8FEA89FB8980818062F4
:10044000CFCFCF93DF93EC01888D8823B9F0AA89B1
:10045000BB89E889F9898C9185FD03C0808186FD7F
:100460000DC00FB607FCF7CF8C9185FFF2CF8081CE
:1004700085FFEDCFCE010E94B201E9CFDF91CF9190
:10048000089580E090E0892B29F00E94A801811155
:100490000E94000080E090E0892B49F080E090E02D
:1004A000892B29F00E94000081110E94000080E049
:1004B00090E0892B49F080E090E0892B29F00E94A0
:1004C000000081110E94000080E090E0892B49F03B
:1004D00080E090E0892B29F00E94000081110C94AB
:1004E00000000895FC0180819181009711F00C9427
:1004F000530608950F931F93CF93DF93EC018881E8
:100500009981009759F02A813B812617370730F0EF
:1005100081E0DF91CF911F910F9108958B016F5F63
:100520007F4F0E94DC06009759F0998388831B83D4
:100530000A832C813D81232B59F7FC011082E8CFDF
:1005400080E0E7CFEF92FF920F931F93CF93DF935B
:10055000EC017B018A01BA010E947A02288139816B
:10056000811114C02115310519F0C9010E945306EB
:10057000198218821D821C821B821A82CE01DF9191
:10058000CF911F910F91FF90EF9008951D830C83E1
:10059000B701C9010E94C607F1CF1F920F920FB693
:1005A0000F9211242F933F938F939F93AF93BF93F9
:1005B0008091250290912602A0912702B0912802F5
:1005C0003091240223E0230F2D3758F50196A11D09
:1005D000B11D209324028093250290932602A093BC
:1005E0002702B09328028091290290912A02A091BB
:1005F0002B02B0912C020196A11DB11D80932902FE
:1006000090932A02A0932B02B0932C02BF91AF913A
:100610009F918F913F912F910F900FBE0F901F9040
:10062000189526E8230F0296A11DB11DD2CF1F9267
:100630000F920FB60F9211240BB60F922F933F9388
:100640004F935F936F937F938F939F93AF93BF93DA
:10065000EF93FF938DE292E00E94B201FF91EF9140
:10066000BF91AF919F918F917F916F915F914F91CA
:100670003F912F910F900BBE0F900FBE0F901F90C8
:1006800018951F920F920FB60F9211240BB60F926E
:100690002F938F939F93EF93FF93E0913D02F091FF
:1006A0003E028081E0914302F091440282FD1DC030
:1006B0009081809146028F5F8F732091470282174D
:1006C00041F0E0914602F0E0E35DFD4F958F8093AD
:1006D0004602FF91EF919F918F912F910F900BBE4A
:1006E0000F900FBE0F901F9018958081F2CFEDE212
:1006F000F2E01382128288EE93E0A0E0B0E08483FF
:100700009583A683B78380E192E09183808385EC13
:1007100090E09587848784EC90E09787868780ECCB
:1007200090E0918B808B81EC90E0938B828B82ECBC
:1007300090E0958B848B86EC90E0978B868B118E66
:10074000128E138E148EEAECF2E011821082138264
:1007500012821582148250E040E062E272E0CF0122
:100760000C94A202CF93DF93CDB7DEB768970FB694
:10077000F894DEBF0FBECDBF789484B5826084BD8F
:1007800084B5816084BD85B5826085BD85B5816095
:1007900085BD80916E00816080936E001092810013
:1007A00080918100826080938100809181008160CE
:1007B000809381008091800081608093800080918F
:1007C000B10084608093B1008091B000816080931B
:1007D000B00080919100826080939100809191009F
:1007E000816080939100809190008160809390005F
:1007F0008091A10082608093A1008091A10081601E
:100800008093A1008091A00081608093A0008091DE
:100810002101826080932101809121018160809378
:1008200021018091200181608093200180917A00D4
:10083000846080937A0080917A00826080937A004D
:1008400080917A00816080937A0080917A0080683C
:1008500080937A001092C100EFE8F1E02491E9E47E
:10086000F1E08491882399F090E0880F991FFC01B2
:10087000EE5DFE4FA591B491FC01E85FFE4F8591BE
:1008800094918FB7F894EC91E22BEC938FBFE091A9
:100890003D02F0913E0282E08083E0913902F091C6
:1008A0003A021082E0913B02F0913C028FEC80838F
:1008B00010924502E0914102F091420286E080836D
:1008C000E0913F02F0914002808180618083E0915D
:1008D0003F02F0914002808188608083E0913F0276
:1008E000F0914002808180688083E0913F02F09126
:1008F000400280818F7D808384E690E0A0E0B0E0BC
:100900008093310290933202A0933302B093340269
:100910002CE0C22E22E0D22E8E010F5F1F4F50E03E
:1009200040E062E272E08AEC92E00E94A20296E06D
:10093000E92E92E0F92EF7018081F2E0EF0EF11C32
:10094000863308F0865320917B00982F9870277F7C
:10095000922B90937B008770806480937C008091C1
:100960007A00806480937A0080917A0086FDFCCFC3
:1009700080917800909179001C8A1B8A1E8A1D8ABA
:10098000188E1F8A4AE0B8010E947A05F80101908A
:100990000020E9F73197AF01401B510BB801CE01A0
:1009A00043960E94A2021A8219821C821B821E8216
:1009B0001D826B897C896115710529F04F89588DDD
:1009C000C8010E94A202AD80BE802FEFA21AB20A17
:1009D000B501C8010E947A0229813A81882309F46D
:1009E00078C08D819E816EE172E0820F931F0E941C
:1009F000C607BE82AD8289809A808114910419F164
:100A0000AD80BE80A114B104F1F08091CE0290912E
:100A1000CF02A80EB91EB5018AEC92E00E947A02BC
:100A2000882389F02091CA023091CB028091CE02B6
:100A30009091CF02B401820F931F0E94C607B0921B
:100A4000CF02A092CE02C8010E947202CE0143964C
:100A50000E947202CE14DF0409F06DCF4091CE02E5
:100A60005091CF026091CA027091CB028DE292E068
:100A70000E943E0142E050E060E272E08DE292E0CE
:100A80000E943E010E9419012B013C0184E6882E40
:100A9000912CA12CB12C0E941901641975098609A9
:100AA0009709683E734081059105A8F381E0881A93
:100AB0009108A108B10898EE490E93E0591E611CF7
:100AC000711C81149104A104B10429F70E94410210
:100AD00026CF2115310519F0C9010E9453061A824B
:100AE00019821E821D821C821B8285CF8AEC92E0B5
:100AF0000C947202BB274A3031F4992322F4BDE2F0
:100B0000909581959F4F0C948605BB27FB01552737
:100B1000AA27880F991FAA1FA41710F0A41B83955A
:100B20005051B9F7A05DAA3308F0A95DA1930097D1
:100B300079F7B111B1931192CB010C949F05DC01AF
:100B4000FC01672F71917723E1F7329704C07C9104
:100B50006D9370836291AE17BF07C8F30895EE0FCF
:100B6000FF1F881F8BBF0790F691E02D19940F93FC
:100B70001F93CF93DF938230910510F482E090E0D1
:100B8000E091D202F091D30230E020E0B0E0A0E0AA
:100B9000309799F42115310509F44AC0281B390B07
:100BA00024303105D8F58A819B816115710589F161
:100BB000FB0193838283FE0111C040815181028138
:100BC000138148175907E0F04817590799F410970F
:100BD00061F012960C93129713961C933296CF01E4
:100BE000DF91CF911F910F9108950093D20210933E
:100BF000D302F4CF2115310551F04217530738F0D5
:100C0000A901DB019A01BD01DF01F801C1CFEF01AC
:100C1000F9CF9093D3028093D202CDCFFE01E20FA1
:100C2000F31F819391932250310939832883D7CFC1
:100C30002091D0023091D102232B41F42091020265
:100C4000309103023093D1022093D0022091000210
:100C5000309101022115310541F42DB73EB7409185
:100C6000040250910502241B350BE091D002F09153
:100C7000D102E217F307A0F42E1B3F0B2817390708
:100C800078F0AC014E5F5F4F2417350748F04E0FE8
:100C90005F1F5093D1024093D002819391939FCFD5
:100CA000F0E0E0E09CCFCF93DF930097E9F0FC0108
:100CB000329713821282A091D202B091D302ED0139
:100CC00030E020E01097A1F420813181820F931F42
:100CD0002091D0023091D1022817390709F061C064
:100CE000F093D102E093D002DF91CF910895EA0111
:100CF000CE17DF07E8F54A815B819E01411551055A
:100D0000B1F7E901FB83EA8349915991C40FD51FDB
:100D1000EC17FD0761F4808191810296840F951F85
:100D2000E90199838883828193819B838A83F0E0A0
:100D3000E0E012968D919C9113970097B9F52D9153
:100D40003C911197CD010296820F931F2091D00202
:100D50003091D1022817390739F6309751F51092A2
:100D6000D3021092D202B093D102A093D002BCCF92
:100D7000D383C28340815181840F951FC817D9073F
:100D800061F44E5F5F4F88819981480F591F5183ED
:100D900040838A819B81938382832115310509F0E9
:100DA000B0CFF093D302E093D2029ECFFD01DC01DD
:100DB000C0CF13821282D7CF4F925F926F927F92F1
:100DC0008F929F92AF92BF92CF92DF92EF92FF925B
:100DD0000F931F93CF93DF938C01009799F4CB016E
:100DE000DF91CF911F910F91FF90EF90DF90CF9007
:100DF000BF90AF909F908F907F906F905F904F903B
:100E00000C94B705FC01E60FF71F9C012250310935
:100E1000E217F30708F4AEC0D901CD91DC91119728
:100E2000C617D70720F1C530D10578F0CE01049759
:100E30008617970750F0C61BD70B2297C193D19303
:100E40006D937C93CF010E945306C801DF91CF912F
:100E50001F910F91FF90EF90DF90CF90BF90AF90D8
:100E60009F908F907F906F905F904F9008955B015F
:100E7000AC1ABD0A4C018C0E9D1EA091D202B091FD
:100E8000D302512C412CF12CE12C109731F580919B
:100E9000D0029091D1028815990509F05CC04616E0
:100EA000570608F058C08091000290910102009707
:100EB00041F48DB79EB74091040250910502841B06
:100EC000950BE817F90708F055C0F093D102E093AD
:100ED000D002F90171836083B8CF8D919C911197F5
:100EE00012966C90129713967C901397A815B905DB
:100EF00059F56C0142E0C40ED11CCA14DB0420F188
:100F0000AC014A195B09DA011296159780F06282EA
:100F1000738251834083D9016D937C93E114F10472
:100F200071F0D7011396FC93EE9312978ECF229611
:100F30008C0F9D1FF90191838083F301EFCFF09314
:100F4000D302E093D20281CF4816590608F42C014F
:100F50007D01D3019ACFCB010E94B7057C01009798
:100F600049F0AE01B8010E94BD07C8010E945306B6
:100F700087016BCF10E000E068CFFB01DC0102C00D
:100F800001900D9241505040D8F70895FB01DC01CB
:100F900001900D920020E1F7089510E0C5EED0E039
:100FA00000E006C0802FFE010E94AF052196011DC2
:0E0FB000C63ED10780E00807A9F7F894FFCFEE
:100FBE000000D40280003600370038000000000028
:100FCE00D4013E016B0121029C017A018E012D009C
:040FDE000D0A0000F8
:00000001FF
